{
  "transactions": [
    {
      "hash": "0x2279e450f3e1653869217eed5d9f0f11553e5ff409c8859e73ae5c8665f0d827",
      "transactionType": "CALL",
      "contractName": "NegRiskCtfExchange",
      "contractAddress": "0x219af74bf581c5e3a71ac3e94f3981e4b066da9d",
      "function": "addOperator(address)",
      "arguments": [
        "0xE7264FD9e02c75cb55f978D21Bf6856BA8c8FBF5"
      ],
      "transaction": {
        "from": "0x7496014dd7ec0c825c3bc1e91bd5c01e2961318b",
        "to": "0x219af74bf581c5e3a71ac3e94f3981e4b066da9d",
        "gas": "0x110ae",
        "value": "0x0",
        "input": "0x9870d7fe000000000000000000000000e7264fd9e02c75cb55f978d21bf6856ba8c8fbf5",
        "nonce": "0x5c8",
        "chainId": "0x14a34"
      },
      "additionalContracts": [],
      "isFixedGasLimit": false
    }
  ],
  "receipts": [
    {
      "status": "0x1",
      "cumulativeGasUsed": "0x45c8ad",
      "logs": [
        {
          "address": "0x219af74bf581c5e3a71ac3e94f3981e4b066da9d",
          "topics": [
            "0xf1e04d73c4304b5ff164f9d10c7473e2a1593b740674a6107975e2a7001c1e5c",
            "0x000000000000000000000000e7264fd9e02c75cb55f978d21bf6856ba8c8fbf5",
            "0x0000000000000000000000007496014dd7ec0c825c3bc1e91bd5c01e2961318b"
          ],
          "data": "0x",
          "blockHash": "0x55b1a2bfc5582bb0fd723dd8b283d1d9fcdb26c95ad0bbb60ab06b3b8c71be3c",
          "blockNumber": "0x1ffba21",
          "blockTimestamp": "0x6912d322",
          "transactionHash": "0x2279e450f3e1653869217eed5d9f0f11553e5ff409c8859e73ae5c8665f0d827",
          "transactionIndex": "0x2e",
          "logIndex": "0xa9",
          "removed": false
        }
      ],
      "logsBloom": "0x00000000000800000000000000000000000000000000000000000000000000000000000000000000000000000000000000000000000000000000000000000000000000000000000080000000000000000000200000000000000000000000000000000000000000000000000000000000000000000000000000000000000000000000000000000000000000000001000080000000000000000000000000002000000000000000000000100000000000000000000000000000000000000400000000000000000000000000000000000000000000000000000000000000000000000000000000000000000400000000000001800000100000000000000000000000",
      "type": "0x2",
      "transactionHash": "0x2279e450f3e1653869217eed5d9f0f11553e5ff409c8859e73ae5c8665f0d827",
      "transactionIndex": "0x2e",
      "blockHash": "0x55b1a2bfc5582bb0fd723dd8b283d1d9fcdb26c95ad0bbb60ab06b3b8c71be3c",
      "blockNumber": "0x1ffba21",
      "gasUsed": "0xba73",
      "effectiveGasPrice": "0xf4291",
      "from": "0x7496014dd7ec0c825c3bc1e91bd5c01e2961318b",
      "to": "0x219af74bf581c5e3a71ac3e94f3981e4b066da9d",
      "contractAddress": null,
      "l1BaseFeeScalar": "0x44d",
      "l1BlobBaseFee": "0x1",
      "l1BlobBaseFeeScalar": "0xa118b",
      "l1Fee": "0x55",
      "l1GasPrice": "0xb",
      "l1GasUsed": "0x640"
    }
  ],
  "libraries": [],
  "pending": [],
  "returns": {},
  "timestamp": 1762841377283,
  "chain": 84532,
  "commit": "e6739c5"
}