{
  "transactions": [
    {
      "hash": "0x91c0bae7afd5ed6def9cda08be20edfaaf1a146be957c1b3d1feeaad7ee5477a",
      "transactionType": "CALL",
      "contractName": null,
      "contractAddress": "0x219af74bf581c5e3a71ac3e94f3981e4b066da9d",
      "function": "addOperator(address)",
      "arguments": [
        "0x2b8D0C43c9F8413FE49e61305F210197D6724e80"
      ],
      "transaction": {
        "from": "0x7496014dd7ec0c825c3bc1e91bd5c01e2961318b",
        "to": "0x219af74bf581c5e3a71ac3e94f3981e4b066da9d",
        "gas": "0x110ae",
        "value": "0x0",
        "input": "0x9870d7fe0000000000000000000000002b8d0c43c9f8413fe49e61305f210197d6724e80",
        "nonce": "0x359",
        "chainId": "0x14a34"
      },
      "additionalContracts": [],
      "isFixedGasLimit": false
    }
  ],
  "receipts": [
    {
      "status": "0x1",
      "cumulativeGasUsed": "0x56f6d7",
      "logs": [
        {
          "address": "0x219af74bf581c5e3a71ac3e94f3981e4b066da9d",
          "topics": [
            "0xf1e04d73c4304b5ff164f9d10c7473e2a1593b740674a6107975e2a7001c1e5c",
            "0x0000000000000000000000002b8d0c43c9f8413fe49e61305f210197d6724e80",
            "0x0000000000000000000000007496014dd7ec0c825c3bc1e91bd5c01e2961318b"
          ],
          "data": "0x",
          "blockHash": "0xd466bc983a2425cbb1d54d95d5f0169cbb7dce3e08b7159f8da658a35488948f",
          "blockNumber": "0x1fb398a",
          "blockTimestamp": "0x6909d1f4",
          "transactionHash": "0x91c0bae7afd5ed6def9cda08be20edfaaf1a146be957c1b3d1feeaad7ee5477a",
          "transactionIndex": "0x16",
          "logIndex": "0xa2",
          "removed": false
        }
      ],
      "logsBloom": "0x00000000000800000000000000000000000000000200000000000000000000000000000000000000000000000000000000000000000000000000000000000000000000000008000080000000000000000000200000000000000000000000000000000000000000000000000000000000000000000000000000000000000000000000000000000000000000000001000000000000000000000000000000002000000000000000000000100000000000000000000000000000000000000000000000000000000000000000010000000000000000000000000000000000000000000000000000000000000400000000000001800000000000000000000000000000",
      "type": "0x2",
      "transactionHash": "0x91c0bae7afd5ed6def9cda08be20edfaaf1a146be957c1b3d1feeaad7ee5477a",
      "transactionIndex": "0x16",
      "blockHash": "0xd466bc983a2425cbb1d54d95d5f0169cbb7dce3e08b7159f8da658a35488948f",
      "blockNumber": "0x1fb398a",
      "gasUsed": "0xba73",
      "effectiveGasPrice": "0xf428e",
      "from": "0x7496014dd7ec0c825c3bc1e91bd5c01e2961318b",
      "to": "0x219af74bf581c5e3a71ac3e94f3981e4b066da9d",
      "contractAddress": null,
      "l1BaseFeeScalar": "0x44d",
      "l1BlobBaseFee": "0x1",
      "l1BlobBaseFeeScalar": "0xa118b",
      "l1Fee": "0x5a",
      "l1GasPrice": "0xe",
      "l1GasUsed": "0x640"
    }
  ],
  "libraries": [],
  "pending": [],
  "returns": {},
  "timestamp": 1762251253008,
  "chain": 84532,
  "commit": "c9f5020"
}