{
  "transactions": [
    {
      "hash": "0x8203d18b6027c3711c831dbe3be84dbde804fdccb3c5eab2beb433cd75e243ea",
      "transactionType": "CALL",
      "contractName": null,
      "contractAddress": "0xeba6a0c426f21c1d120b14def2f4fca1893aa08c",
      "function": "addOperator(address)",
      "arguments": [
        "0x3fE043B1790EA3Ed82848bd921a444Dc76Faf4F4"
      ],
      "transaction": {
        "from": "0x7496014dd7ec0c825c3bc1e91bd5c01e2961318b",
        "to": "0xeba6a0c426f21c1d120b14def2f4fca1893aa08c",
        "gas": "0x110ae",
        "value": "0x0",
        "input": "0x9870d7fe0000000000000000000000003fe043b1790ea3ed82848bd921a444dc76faf4f4",
        "nonce": "0x1a2",
        "chainId": "0x14a34"
      },
      "additionalContracts": [],
      "isFixedGasLimit": false
    }
  ],
  "receipts": [
    {
      "status": "0x1",
      "cumulativeGasUsed": "0x62ed1",
      "logs": [
        {
          "address": "0xeba6a0c426f21c1d120b14def2f4fca1893aa08c",
          "topics": [
            "0xf1e04d73c4304b5ff164f9d10c7473e2a1593b740674a6107975e2a7001c1e5c",
            "0x0000000000000000000000003fe043b1790ea3ed82848bd921a444dc76faf4f4",
            "0x0000000000000000000000007496014dd7ec0c825c3bc1e91bd5c01e2961318b"
          ],
          "data": "0x",
          "blockHash": "0x39e83f1e3f861b93060c68ce59f0dea1d3fe246544f847dcdcb1846eff1d975f",
          "blockNumber": "0x1f963f9",
          "blockTimestamp": "0x690626d2",
          "transactionHash": "0x8203d18b6027c3711c831dbe3be84dbde804fdccb3c5eab2beb433cd75e243ea",
          "transactionIndex": "0x6",
          "logIndex": "0x2",
          "removed": false
        }
      ],
      "logsBloom": "0x00000000000000000000000000080000000000000000000000000000000000000000000000000008000000000000000000000000000000000000000000000000000000000000000080000000000000000000200000000000000000000000000000000000000000000000000000000000000000000000000000000000000000000000000000000000000000000000000000000000000008000000000000002000000000000000000000100000000000000000000000000000000000000200000000000000000000000000000000000000000000004000000000000000000000000000000000000000000400000000000000a00000000000000000000000000000",
      "type": "0x0",
      "transactionHash": "0x8203d18b6027c3711c831dbe3be84dbde804fdccb3c5eab2beb433cd75e243ea",
      "transactionIndex": "0x6",
      "blockHash": "0x39e83f1e3f861b93060c68ce59f0dea1d3fe246544f847dcdcb1846eff1d975f",
      "blockNumber": "0x1f963f9",
      "gasUsed": "0xba73",
      "effectiveGasPrice": "0xf4280",
      "from": "0x7496014dd7ec0c825c3bc1e91bd5c01e2961318b",
      "to": "0xeba6a0c426f21c1d120b14def2f4fca1893aa08c",
      "contractAddress": null,
      "l1BaseFeeScalar": "0x44d",
      "l1BlobBaseFee": "0x1",
      "l1BlobBaseFeeScalar": "0xa118b",
      "l1Fee": "0x55",
      "l1GasPrice": "0x9",
      "l1GasUsed": "0x640"
    }
  ],
  "libraries": [],
  "pending": [],
  "returns": {},
  "timestamp": 1762010832845,
  "chain": 84532,
  "commit": "675f365"
}