{
  "transactions": [
    {
      "hash": "0x039d750fba0b7d662824e9c3471968ef437ba9864f348a1544049df009e506dd",
      "transactionType": "CALL",
      "contractName": null,
      "contractAddress": "0x219af74bf581c5e3a71ac3e94f3981e4b066da9d",
      "function": "addOperator(address)",
      "arguments": [
        "0xE4d3Ea693CFE7569f719B0281D1e4c6e70832d77"
      ],
      "transaction": {
        "from": "0x7496014dd7ec0c825c3bc1e91bd5c01e2961318b",
        "to": "0x219af74bf581c5e3a71ac3e94f3981e4b066da9d",
        "gas": "0x110ae",
        "value": "0x0",
        "input": "0x9870d7fe000000000000000000000000e4d3ea693cfe7569f719b0281d1e4c6e70832d77",
        "nonce": "0x35b",
        "chainId": "0x14a34"
      },
      "additionalContracts": [],
      "isFixedGasLimit": false
    }
  ],
  "receipts": [
    {
      "status": "0x1",
      "cumulativeGasUsed": "0x71dda7",
      "logs": [
        {
          "address": "0x219af74bf581c5e3a71ac3e94f3981e4b066da9d",
          "topics": [
            "0xf1e04d73c4304b5ff164f9d10c7473e2a1593b740674a6107975e2a7001c1e5c",
            "0x000000000000000000000000e4d3ea693cfe7569f719b0281d1e4c6e70832d77",
            "0x0000000000000000000000007496014dd7ec0c825c3bc1e91bd5c01e2961318b"
          ],
          "data": "0x",
          "blockHash": "0x6b9aab9f7c409a3cf1eff27971927cfcf5f451c3fa05b249c40d5fe5155a7766",
          "blockNumber": "0x1fb3db2",
          "blockTimestamp": "0x6909da44",
          "transactionHash": "0x039d750fba0b7d662824e9c3471968ef437ba9864f348a1544049df009e506dd",
          "transactionIndex": "0x40",
          "logIndex": "0x124",
          "removed": false
        }
      ],
      "logsBloom": "0x00000000000800000000000000000000000000000000000000000000000000010000000000000000000000000000000000000000000000000000000000000000000000000000000080000000000000000000200000000000000000000000000000000000000000000100000000000000000000000000000000800000000000000000000000000000000000000001000000000000000000000000000000002000000000000000000000100000000000000000000000000000000000000000000000000000000000000000000000000000000000000000000000000000000000000000000000000000000400000000000001800000000000000000000000000000",
      "type": "0x2",
      "transactionHash": "0x039d750fba0b7d662824e9c3471968ef437ba9864f348a1544049df009e506dd",
      "transactionIndex": "0x40",
      "blockHash": "0x6b9aab9f7c409a3cf1eff27971927cfcf5f451c3fa05b249c40d5fe5155a7766",
      "blockNumber": "0x1fb3db2",
      "gasUsed": "0xba73",
      "effectiveGasPrice": "0xf4279",
      "from": "0x7496014dd7ec0c825c3bc1e91bd5c01e2961318b",
      "to": "0x219af74bf581c5e3a71ac3e94f3981e4b066da9d",
      "contractAddress": null,
      "l1BaseFeeScalar": "0x44d",
      "l1BlobBaseFee": "0x1",
      "l1BlobBaseFeeScalar": "0xa118b",
      "l1Fee": "0x5c",
      "l1GasPrice": "0xf",
      "l1GasUsed": "0x640"
    }
  ],
  "libraries": [],
  "pending": [],
  "returns": {},
  "timestamp": 1762253381196,
  "chain": 84532,
  "commit": "1261be1"
}