{
  "transactions": [
    {
      "hash": "0xdc301b28f16fc5d04b6314309a858785ade8373810675a5ad7a8e5abd63a5b89",
      "transactionType": "CALL",
      "contractName": null,
      "contractAddress": "0xeba6a0c426f21c1d120b14def2f4fca1893aa08c",
      "function": "addOperator(address)",
      "arguments": [
        "0x82064a30C6ABc3A38091c106b2B7244Ede8722d7"
      ],
      "transaction": {
        "from": "0x7496014dd7ec0c825c3bc1e91bd5c01e2961318b",
        "to": "0xeba6a0c426f21c1d120b14def2f4fca1893aa08c",
        "gas": "0x110ae",
        "value": "0x0",
        "input": "0x9870d7fe00000000000000000000000082064a30c6abc3a38091c106b2b7244ede8722d7",
        "nonce": "0x15f",
        "chainId": "0x14a34"
      },
      "additionalContracts": [],
      "isFixedGasLimit": false
    }
  ],
  "receipts": [
    {
      "status": "0x1",
      "cumulativeGasUsed": "0x5217df",
      "logs": [
        {
          "address": "0xeba6a0c426f21c1d120b14def2f4fca1893aa08c",
          "topics": [
            "0xf1e04d73c4304b5ff164f9d10c7473e2a1593b740674a6107975e2a7001c1e5c",
            "0x00000000000000000000000082064a30c6abc3a38091c106b2b7244ede8722d7",
            "0x0000000000000000000000007496014dd7ec0c825c3bc1e91bd5c01e2961318b"
          ],
          "data": "0x",
          "blockHash": "0x03760e5a4c90fa323a4a5190ad812105fab262f7df7b8579bba14571c6ed47eb",
          "blockNumber": "0x1f89aa2",
          "blockTimestamp": "0x69049424",
          "transactionHash": "0xdc301b28f16fc5d04b6314309a858785ade8373810675a5ad7a8e5abd63a5b89",
          "transactionIndex": "0xe",
          "logIndex": "0xb9",
          "removed": false
        }
      ],
      "logsBloom": "0x00000000000000000000020000000000000000000000000000000000000000000000000000000008000000400000000000000000000000000000000000000000000000000000000080000000000000000000200000000000000000000000000000000000000000000000000000000000000000000000000000000000000000000000000000000000000000000000000000000000000000000000000000002000000000000000000000100002000000000000000000000000000000000200000000000000000000000000000000000000000000004000000000000000000000000000000000000000000400000000000000800000000000000000000000000000",
      "type": "0x2",
      "transactionHash": "0xdc301b28f16fc5d04b6314309a858785ade8373810675a5ad7a8e5abd63a5b89",
      "transactionIndex": "0xe",
      "blockHash": "0x03760e5a4c90fa323a4a5190ad812105fab262f7df7b8579bba14571c6ed47eb",
      "blockNumber": "0x1f89aa2",
      "gasUsed": "0xba73",
      "effectiveGasPrice": "0xf428a",
      "from": "0x7496014dd7ec0c825c3bc1e91bd5c01e2961318b",
      "to": "0xeba6a0c426f21c1d120b14def2f4fca1893aa08c",
      "contractAddress": null,
      "l1BaseFeeScalar": "0x44d",
      "l1BlobBaseFee": "0x1",
      "l1BlobBaseFeeScalar": "0xa118b",
      "l1Fee": "0x50",
      "l1GasPrice": "0x8",
      "l1GasUsed": "0x640"
    }
  ],
  "libraries": [],
  "pending": [],
  "returns": {},
  "timestamp": 1761907747520,
  "chain": 84532,
  "commit": "30f9f99"
}