{
  "transactions": [
    {
      "hash": "0x1a5ed3176aefe3ec59675e36f59dfa42e7a988f71a03eb05b108fc884c9c5e2d",
      "transactionType": "CALL",
      "contractName": "NegRiskCtfExchange",
      "contractAddress": "0x219af74bf581c5e3a71ac3e94f3981e4b066da9d",
      "function": "addOperator(address)",
      "arguments": [
        "0x8936708Ba7fABBC7C28aE9e1D5D46ef101514EFf"
      ],
      "transaction": {
        "from": "0x7496014dd7ec0c825c3bc1e91bd5c01e2961318b",
        "to": "0x219af74bf581c5e3a71ac3e94f3981e4b066da9d",
        "gas": "0x110ae",
        "value": "0x0",
        "input": "0x9870d7fe0000000000000000000000008936708ba7fabbc7c28ae9e1d5d46ef101514eff",
        "nonce": "0x599",
        "chainId": "0x14a34"
      },
      "additionalContracts": [],
      "isFixedGasLimit": false
    }
  ],
  "receipts": [
    {
      "status": "0x1",
      "cumulativeGasUsed": "0x166a7b",
      "logs": [
        {
          "address": "0x219af74bf581c5e3a71ac3e94f3981e4b066da9d",
          "topics": [
            "0xf1e04d73c4304b5ff164f9d10c7473e2a1593b740674a6107975e2a7001c1e5c",
            "0x0000000000000000000000008936708ba7fabbc7c28ae9e1d5d46ef101514eff",
            "0x0000000000000000000000007496014dd7ec0c825c3bc1e91bd5c01e2961318b"
          ],
          "data": "0x",
          "blockHash": "0x7465ee1d1cbb1256beeca6ff09af56dff4650db341f28df6bfb49ee1a9c69ac7",
          "blockNumber": "0x1ff63c9",
          "blockTimestamp": "0x69122672",
          "transactionHash": "0x1a5ed3176aefe3ec59675e36f59dfa42e7a988f71a03eb05b108fc884c9c5e2d",
          "transactionIndex": "0x6",
          "logIndex": "0x32",
          "removed": false
        }
      ],
      "logsBloom": "0x00000000000800000200000000000000000000000000000000000000000000000000000000000000000008000000000000000000000000000000000000000000000000000000000080000000000000000000200000000000000000000000000000000000000000000000000000000000000000000000000000000000000000000000000000000000000000000001000000000000000000000000000000002000000000000000000000100000000000000000000000000000000000000000000000000000000000000000000000000000000000000000000000000000000000000000000000000000000400000000000001800000000100000000000000000000",
      "type": "0x2",
      "transactionHash": "0x1a5ed3176aefe3ec59675e36f59dfa42e7a988f71a03eb05b108fc884c9c5e2d",
      "transactionIndex": "0x6",
      "blockHash": "0x7465ee1d1cbb1256beeca6ff09af56dff4650db341f28df6bfb49ee1a9c69ac7",
      "blockNumber": "0x1ff63c9",
      "gasUsed": "0xba73",
      "effectiveGasPrice": "0xf427b",
      "from": "0x7496014dd7ec0c825c3bc1e91bd5c01e2961318b",
      "to": "0x219af74bf581c5e3a71ac3e94f3981e4b066da9d",
      "contractAddress": null,
      "l1BaseFeeScalar": "0x44d",
      "l1BlobBaseFee": "0x1",
      "l1BlobBaseFeeScalar": "0xa118b",
      "l1Fee": "0x55",
      "l1GasPrice": "0xb",
      "l1GasUsed": "0x640"
    }
  ],
  "libraries": [],
  "pending": [],
  "returns": {},
  "timestamp": 1762797168463,
  "chain": 84532,
  "commit": "e6739c5"
}