{
  "transactions": [
    {
      "hash": "0x4c1019cb87322c282e86e279fb37fd7c1bd74c20b0bc8edf30a5e7659654cd60",
      "transactionType": "CALL",
      "contractName": "NegRiskAdapter",
      "contractAddress": "0x9a24e28b1e7013f0aacf705d3e5b78a801b9c036",
      "function": "addAdmin(address)",
      "arguments": [
        "0x219aF74Bf581c5E3A71AC3e94F3981e4b066dA9d"
      ],
      "transaction": {
        "from": "0x7496014dd7ec0c825c3bc1e91bd5c01e2961318b",
        "to": "0x9a24e28b1e7013f0aacf705d3e5b78a801b9c036",
        "gas": "0x9ef5",
        "value": "0x0",
        "input": "0x70480275000000000000000000000000219af74bf581c5e3a71ac3e94f3981e4b066da9d",
        "nonce": "0x59a",
        "chainId": "0x14a34"
      },
      "additionalContracts": [],
      "isFixedGasLimit": false
    }
  ],
  "receipts": [
    {
      "status": "0x1",
      "cumulativeGasUsed": "0x1224b2",
      "logs": [
        {
          "address": "0x9a24e28b1e7013f0aacf705d3e5b78a801b9c036",
          "topics": [
            "0xf9ffabca9c8276e99321725bcb43fb076a6c66a54b7f21c4e8146d8519b417dc",
            "0x0000000000000000000000007496014dd7ec0c825c3bc1e91bd5c01e2961318b",
            "0x000000000000000000000000219af74bf581c5e3a71ac3e94f3981e4b066da9d"
          ],
          "data": "0x",
          "blockHash": "0xcbdd392c9fa1e38453dc71437fdee5afb3cfbdf808e3b59e05b816b1222f8138",
          "blockNumber": "0x1ff63da",
          "blockTimestamp": "0x69122694",
          "transactionHash": "0x4c1019cb87322c282e86e279fb37fd7c1bd74c20b0bc8edf30a5e7659654cd60",
          "transactionIndex": "0x9",
          "logIndex": "0x11",
          "removed": false
        }
      ],
      "logsBloom": "0x00000000000000000000000000000000000000000000000000000000000000000000000000000000000000000000000000000000000000000000000000000000000000000000000080000000000800000000200000000000000000000000000000000000000000000000200000200000000000000000000000000000080000000000000000000000000000000000000040000000000000000010000000000000000000000000000000000000000000000000080000000000000000080000000000000000000000000000000000000000000000000000000000000000000000000000000000000000000400000000000100000000000000000000000000000000",
      "type": "0x2",
      "transactionHash": "0x4c1019cb87322c282e86e279fb37fd7c1bd74c20b0bc8edf30a5e7659654cd60",
      "transactionIndex": "0x9",
      "blockHash": "0xcbdd392c9fa1e38453dc71437fdee5afb3cfbdf808e3b59e05b816b1222f8138",
      "blockNumber": "0x1ff63da",
      "gasUsed": "0x6cb1",
      "effectiveGasPrice": "0xf07e3",
      "from": "0x7496014dd7ec0c825c3bc1e91bd5c01e2961318b",
      "to": "0x9a24e28b1e7013f0aacf705d3e5b78a801b9c036",
      "contractAddress": null,
      "l1BaseFeeScalar": "0x44d",
      "l1BlobBaseFee": "0x1",
      "l1BlobBaseFeeScalar": "0xa118b",
      "l1Fee": "0x53",
      "l1GasPrice": "0xa",
      "l1GasUsed": "0x640"
    }
  ],
  "libraries": [],
  "pending": [],
  "returns": {},
  "timestamp": 1762797204353,
  "chain": 84532,
  "commit": "e6739c5"
}