{
  "transactions": [
    {
      "hash": "0x59aba9e9a99130a0adabbbdacedbd482080b397ec7042faab4dd7f55143c1c8b",
      "transactionType": "CALL",
      "contractName": null,
      "contractAddress": "0x9a24e28b1e7013f0aacf705d3e5b78a801b9c036",
      "function": "addAdmin(address)",
      "arguments": [
        "0x219aF74Bf581c5E3A71AC3e94F3981e4b066dA9d"
      ],
      "transaction": {
        "from": "0x7496014dd7ec0c825c3bc1e91bd5c01e2961318b",
        "to": "0x9a24e28b1e7013f0aacf705d3e5b78a801b9c036",
        "gas": "0x1017f",
        "value": "0x0",
        "input": "0x70480275000000000000000000000000219af74bf581c5e3a71ac3e94f3981e4b066da9d",
        "nonce": "0x35e",
        "chainId": "0x14a34"
      },
      "additionalContracts": [],
      "isFixedGasLimit": false
    }
  ],
  "receipts": [
    {
      "status": "0x1",
      "cumulativeGasUsed": "0x126b5e6",
      "logs": [
        {
          "address": "0x9a24e28b1e7013f0aacf705d3e5b78a801b9c036",
          "topics": [
            "0xf9ffabca9c8276e99321725bcb43fb076a6c66a54b7f21c4e8146d8519b417dc",
            "0x0000000000000000000000007496014dd7ec0c825c3bc1e91bd5c01e2961318b",
            "0x000000000000000000000000219af74bf581c5e3a71ac3e94f3981e4b066da9d"
          ],
          "data": "0x",
          "blockHash": "0xd60f3e8fb8386d6bfe07907d5eef194a4c80f1532498eedfe3b7d59ed5a9dee0",
          "blockNumber": "0x1fb3e3b",
          "blockTimestamp": "0x6909db56",
          "transactionHash": "0x59aba9e9a99130a0adabbbdacedbd482080b397ec7042faab4dd7f55143c1c8b",
          "transactionIndex": "0x23",
          "logIndex": "0x84",
          "removed": false
        }
      ],
      "logsBloom": "0x00000000000000000000000000000000000000000000000000000000000000000000000000000000000000000000000000000000000000000000000000000000000000000000000080000000000800000000200000000000000000000000000000000000000000000000200000200000000000000000000000000000080000000000000000000000000000000000000040000000000000000010000000000000000000000000000000000000000000000000080000000000000000080000000000000000000000000000000000000000000000000000000000000000000000000000000000000000000400000000000100000000000000000000000000000000",
      "type": "0x2",
      "transactionHash": "0x59aba9e9a99130a0adabbbdacedbd482080b397ec7042faab4dd7f55143c1c8b",
      "transactionIndex": "0x23",
      "blockHash": "0xd60f3e8fb8386d6bfe07907d5eef194a4c80f1532498eedfe3b7d59ed5a9dee0",
      "blockNumber": "0x1fb3e3b",
      "gasUsed": "0xba6d",
      "effectiveGasPrice": "0xf427e",
      "from": "0x7496014dd7ec0c825c3bc1e91bd5c01e2961318b",
      "to": "0x9a24e28b1e7013f0aacf705d3e5b78a801b9c036",
      "contractAddress": null,
      "l1BaseFeeScalar": "0x44d",
      "l1BlobBaseFee": "0x1",
      "l1BlobBaseFeeScalar": "0xa118b",
      "l1Fee": "0x5f",
      "l1GasPrice": "0x11",
      "l1GasUsed": "0x640"
    }
  ],
  "libraries": [],
  "pending": [],
  "returns": {},
  "timestamp": 1762253655255,
  "chain": 84532,
  "commit": "1261be1"
}