{
  "transactions": [
    {
      "hash": "0x1e235c092cd9e98f47802b8dce34c3a3bb6075833f90e677a130da45549a924b",
      "transactionType": "CALL",
      "contractName": null,
      "contractAddress": "0x0ba68e415797941847611c4a9a8dcbef84c9ff73",
      "function": "setOracle(address)",
      "arguments": [
        "0x3848c0cb0F60f4ac894638F878F6F03Ad2e69Ecb"
      ],
      "transaction": {
        "from": "0x7496014dd7ec0c825c3bc1e91bd5c01e2961318b",
        "to": "0x0ba68e415797941847611c4a9a8dcbef84c9ff73",
        "gas": "0x1085a",
        "value": "0x0",
        "input": "0x7adbf9730000000000000000000000003848c0cb0f60f4ac894638f878f6f03ad2e69ecb",
        "nonce": "0x5ca",
        "chainId": "0x14a34"
      },
      "additionalContracts": [],
      "isFixedGasLimit": false
    }
  ],
  "receipts": [
    {
      "status": "0x1",
      "cumulativeGasUsed": "0x53b16d",
      "logs": [],
      "logsBloom": "0x00000000000000000000000000000000000000000000000000000000000000000000000000000000000000000000000000000000000000000000000000000000000000000000000000000000000000000000000000000000000000000000000000000000000000000000000000000000000000000000000000000000000000000000000000000000000000000000000000000000000000000000000000000000000000000000000000000000000000000000000000000000000000000000000000000000000000000000000000000000000000000000000000000000000000000000000000000000000000000000000000000000000000000000000000000000",
      "type": "0x2",
      "transactionHash": "0x1e235c092cd9e98f47802b8dce34c3a3bb6075833f90e677a130da45549a924b",
      "transactionIndex": "0xa",
      "blockHash": "0x8f2618dd63b7b000a885a6278a091c7f721007e41067ecfbe7c8a52461bae1ac",
      "blockNumber": "0x1ffba58",
      "gasUsed": "0xb4c1",
      "effectiveGasPrice": "0xf4291",
      "from": "0x7496014dd7ec0c825c3bc1e91bd5c01e2961318b",
      "to": "0x0ba68e415797941847611c4a9a8dcbef84c9ff73",
      "contractAddress": null,
      "l1BaseFeeScalar": "0x44d",
      "l1BlobBaseFee": "0x1",
      "l1BlobBaseFeeScalar": "0xa118b",
      "l1Fee": "0x55",
      "l1GasPrice": "0xb",
      "l1GasUsed": "0x640"
    }
  ],
  "libraries": [],
  "pending": [],
  "returns": {},
  "timestamp": 1762841488549,
  "chain": 84532,
  "commit": "e6739c5"
}