{
  "transactions": [
    {
      "hash": "0xe4f200a5b11879b74c326d11e657183d51695a6332b2b4a236b546649f250d29",
      "transactionType": "CALL",
      "contractName": null,
      "contractAddress": "0xf806db15d62da79485489fd3058109147703c722",
      "function": "setOracle(address)",
      "arguments": [
        "0x89d26D25F4b1F71b4280865e86a2c8c67D87B1C2"
      ],
      "transaction": {
        "from": "0x7496014dd7ec0c825c3bc1e91bd5c01e2961318b",
        "to": "0xf806db15d62da79485489fd3058109147703c722",
        "gas": "0x1085a",
        "value": "0x0",
        "input": "0x7adbf97300000000000000000000000089d26d25f4b1f71b4280865e86a2c8c67d87b1c2",
        "nonce": "0x598",
        "chainId": "0x14a34"
      },
      "additionalContracts": [],
      "isFixedGasLimit": false
    }
  ],
  "receipts": [
    {
      "status": "0x1",
      "cumulativeGasUsed": "0x63bd0",
      "logs": [],
      "logsBloom": "0x00000000000000000000000000000000000000000000000000000000000000000000000000000000000000000000000000000000000000000000000000000000000000000000000000000000000000000000000000000000000000000000000000000000000000000000000000000000000000000000000000000000000000000000000000000000000000000000000000000000000000000000000000000000000000000000000000000000000000000000000000000000000000000000000000000000000000000000000000000000000000000000000000000000000000000000000000000000000000000000000000000000000000000000000000000000",
      "type": "0x2",
      "transactionHash": "0xe4f200a5b11879b74c326d11e657183d51695a6332b2b4a236b546649f250d29",
      "transactionIndex": "0x2",
      "blockHash": "0x893f49f9707112cb767340029ea5bfd5617e1c30d9c6ae7f3ddcfd0b0539140c",
      "blockNumber": "0x1ff6395",
      "gasUsed": "0xb4c1",
      "effectiveGasPrice": "0xf427f",
      "from": "0x7496014dd7ec0c825c3bc1e91bd5c01e2961318b",
      "to": "0xf806db15d62da79485489fd3058109147703c722",
      "contractAddress": null,
      "l1BaseFeeScalar": "0x44d",
      "l1BlobBaseFee": "0x1",
      "l1BlobBaseFeeScalar": "0xa118b",
      "l1Fee": "0x22a",
      "l1GasPrice": "0xf",
      "l1GasUsed": "0x640"
    }
  ],
  "libraries": [],
  "pending": [],
  "returns": {},
  "timestamp": 1762797065827,
  "chain": 84532,
  "commit": "e6739c5"
}